:060000000A128A1110280B
:10000800FE00030EF0000408F1000A08F2007F0861
:10001800F3000A128A1148290A128A111328F801D2
:10002800F90183120313AF01B001B101B201B301A9
:10003800B40183010A128A119D2983120313A201B4
:10004800F51F272828282F28F409F509F40A031989
:10005800F50AA201A20AF71F322833283C28F6091C
:10006800F709F60A0319F70A0130A0002008A206CA
:10007800A301A401740875040319432844287B28A4
:10008800A101A10A522801300310F40DF50DFF3E1D
:10009800031D48280130A0002008A107F51F552896
:1000A8005628472801300310A30DA40DFF3E031D59
:1000B800572875087702031D632874087602031C05
:1000C800662867286E287408F6027508031CF7036B
:1000D800F702231401300310F50CF40CFF3E031D46
:1000E8006F280130A102031D7A287B285628220890
:1000F80003197F2880288528A309A409A30A0319BE
:10010800A40A2408F5002308F40008006430F40069
:100118000030F500831203132608F7002508F600BF
:100128000A128A1121200A128A11750883120313F0
:10013800B0007408AF006430F4000030F500260801
:10014800F7002508F6000A128A11ED200A128A1112
:10015800750883120313A6007408A5000A30F4007A
:100168000030F5002608F7002508F6000A128A1163
:1001780021200A128A11750883120313B200740829
:10018800B1000A30F4000030F5002608F700250811
:10019800F6000A128A11ED200A128A1175088312D4
:1001A8000313B4007408B30005302F063004031D90
:1001B800DE28DF28EC28B21BE228E328EC28B41B51
:1001C800E628E728EC28B101B201B301B401EC2814
:1001D800080083120313A201F71FF328F428FB2851
:1001E800F609F709F60A0319F70AA201A20AF51F88
:1001F800FE28FF280429F409F509F40A0319F50A69
:1002080074087504031909290A293929A101A10AC1
:10021800182901300310F40DF50DFF3E031D0E29BA
:100228000130A0002008A107F51F1B291C290D2952
:1002380075087702031D222974087602031C2529F4
:1002480026292C297408F6027508031CF703F702FF
:1002580001300310F50CF40CFF3E031D2D2901306D
:10026800A102031D382939291C29220803193D290F
:100278003E294329F609F709F60A0319F70A770808
:10028800F5007608F40008000B1D4B294C2992292B
:1002980083120313880178087904031D542955290A
:1002A80065292F08013E84000A128A1127220A12A2
:1002B8008A118700013088000130F8000030F90009
:1002C8008F2978037904031D6A296B297B29310852
:1002D800013E84000A128A1127220A128A11870015
:1002E800023088000230F8000030F9008F2902300F
:1002F80078067904031D812982298F293308013E54
:1003080084000A128A1127220A128A1187000430EF
:100318008800F801F9010B11C83081007308FF004B
:1003280072088A0071088400700E8300FE0E7E0E2B
:1003380009000A128A11EE210A128A11C3308312A7
:1003480003139F059F149F18AA29AB29A7291E08E4
:10035800A700A8012708A9002808AA0029088600DC
:100368001A3083120313A800F730A700A70BBA2985
:10037800A80BBA29BF29831203131F08C3390438ED
:100388009F009F149F18C929CA29C6291E08A700BB
:10039800A8012708AB002808AC0003102B0DAD00FE
:1003A8002C0DAE002E08A6002D08A5000A128A11F1
:1003B8008A200A128A111A3083120313A800F73010
:1003C800A700A70BE529A80BE529EA29A2290A1203
:1003D8008A111028831603178801890183160313CD
:1003E80086018701880170308F040F1481128111F2
:1003F80007308104C8308312031381000B118B1658
:100408000B178B1783160317081488148316031306
:1004180005148514831203131F083F3980389F0081
:100428000330F5009730F400F40B182AF50B182A5E
:100438001D2A831603139F131F129F12831203137F
:100448001F140C13080002308A000408840A82076B
:1004580000343F3406345B344F3466346D347D34B5
:0604680007347F34673405
:08400000FF3FFF3FFF3FFF3FC0
:04400E00D420FF3F7C
:00000001FF
